:020000040800F2
:100000006806002091010008990100089B01000882
:100010009D0100089F010008A101000800000000E8
:10002000000000000000000000000000A301000824
:10003000A501000800000000A7010008A9010008B0
:10004000AB010008AB010008AB010008AB010008E0
:10005000AB010008AB010008AB010008AB010008D0
:10006000AB010008AB010008AB010008AB010008C0
:10007000AB010008AB010008AB010008AB010008B0
:10008000AB010008AB010008AB010008AB010008A0
:10009000AB010008AB010008AB010008AB01000890
:1000A000AB010008AB010008AB010008AB01000880
:1000B000AB010008AB010008AB010008AB01000870
:1000C000AB010008AB010008AB010008AB01000860
:1000D000AB010008AB010008AB010008AB01000850
:1000E000AB010008AB010008AB01000800F002F80A
:1000F00000F03FF80AA090E8000C82448344AAF183
:100100000107DA4501D100F034F8AFF2090EBAE880
:100110000F0013F0010F18BFFB1A43F0010318473B
:100120001806000038060000103A24BF78C878C1CD
:10013000FAD8520724BF30C830C144BF04680C60ED
:10014000704700000023002400250026103A28BF35
:1001500078C1FBD8520728BF30C148BF0B60704739
:10016000642900F07D80002070471FB51FBD10B5C9
:1001700010BD00F02AF91146FFF7F7FF00F09AFAD8
:1001800000F048F903B4FFF7F2FF03BC00F050F9A8
:100190000948804709480047FEE7FEE7FEE7FEE71B
:1001A000FEE7FEE7FEE7FEE7FEE7FEE70448054957
:1001B000054A064B70470000DD050008ED00000809
:1001C0006800002068060020680200206802002005
:1001D0000FB41CB5074B06AA7B44694600900598EE
:1001E00000F0DBF80020694600F0EAF81CBC5DF87E
:1001F00014FB0000E50100002DE9F0410E46044625
:10020000002020622046E168884730B3252805D0C9
:10021000D4E901219047206A401CF2E7E1682046BA
:1002200000278847050018D0A5F14100192802D8F9
:1002300020354FF400673246294620462760FFF7F5
:100240008FFF40B1012804D0F61D26F007060836BE
:10025000D8E7361DD6E72846DAE7206ABDE8F08100
:100260002DE9F0410646002410687529314616A58F
:1002700010D0AFF30080002802DA404213A507E057
:1002800031688A0701D512A502E0490704D511A5F6
:10029000012401E0AFF3008000210A2206F12407C7
:1002A00009E0B0FBF2FCB0FBF2F302FB1C003030C3
:1002B00078541846491C0028F3D123462A46304674
:1002C000BDE8F04100F00BB8000000002D00000078
:1002D0002B000000200000007047704770472DE998
:1002E000F0470D4699469246044600F124080168FD
:1002F000880604D5E06921F01001216000E00120AA
:10030000A84201DD471B00E00027A1697A1902EB32
:100310000900081AA0612078C00602D42046AFF375
:100320000080002608E0D4E901211AF80600904771
:10033000206A401C761C20624E45F4DB2078C00603
:100340000AD52046AFF3008006E0D4E90121302031
:100350009047206A401C2062381EA7F10107F4DC98
:1003600007E0D4E9012118F805009047206A401CF5
:100370002062281EA5F10105F3DC2046AFF30080C2
:100380002078000602D50220BDE8F0870120FBE7B7
:1003900001694A1C02610878704700B58FB0CDE949
:1003A00001310021059105497944CDE90310114639
:1003B0006846FFF721FF0FB000BD0000E5FFFFFF1B
:1003C0000A6802F8010B0A607047754600F02CF8C5
:1003D000AE4605006946534620F00700854618B032
:1003E00020B5FFF7E3FEBDE820404FF000064FF0D8
:1003F00000074FF000084FF0000B21F00701AC465A
:10040000ACE8C009ACE8C009ACE8C009ACE8C00978
:100410008D46704710B50446AFF300802046BDE816
:100420001040FFF7AFBE00000048704704000020F6
:1004300001491820ABBEFEE726000200704700000D
:100440000C48806940F400700A4988610A480068D5
:1004500040F004000849086000BF0748006800F049
:1004600004000028F9D10448006840F00100024966
:100470000860704700100240082401400B480068E3
:1004800040F00100094908600846006840F4800017
:10049000086000BF05480838006800F00200002826
:1004A000F8D002484430006880B270470824014008
:1004B0000648806940F014000449886142F2222015
:1004C0000349086000050349486070470010024076
:1004D00000080140001001401FB50446224604A157
:1004E0006846FFF775FE684600F01AF91FBD000068
:1004F0002564000010B500F001F810BD0CB5002017
:10050000019000903348006840F480303149086021
:1005100000BF3048006800F4003000900198401C93
:100520000190009818B90198B0F5A06FF1D1294851
:10053000006800F4003010B10120009001E00020BC
:1005400000900098012843D12348006840F0100033
:10055000214908600846006820F007000860084646
:10056000006840F0020008601A4840681949486075
:100570000846406848600846406840F4806048602B
:100580000846406820F47C1048600846406840F403
:10059000E81048600846006840F08070086000BFBE
:1005A0000C48006800F000700028F9D00948406845
:1005B00020F00300074948600846406840F0020008
:1005C000486000BF0348406800F00C000828F9D1DB
:1005D0000CBD0000001002400020024010B513487E
:1005E000006840F001001149086008464068104961
:1005F00008400E494860084600680E4908400B490B
:1006000008600846006820F48020086008464068BA
:1006100020F4FE0048604FF41F008860FFF76AFF77
:100620004FF000600449086010BD00000010024057
:100630000000FFF8FFFFF6FE08ED00E010B50446ED
:10064000FF20134908601348C06840F480401149F6
:10065000C8600F480838006840EA14100C4908398F
:10066000086000F047F8FF20094908600948C068A1
:1006700040F480400749C86005480838006804F025
:100680000F01084302490839086000F033F810BD33
:100690001408014000100140002107E0002200E0A2
:1006A000521C4FF6E8539A42FADB491C8142F5DBB3
:1006B000704700000C48806940F004000A498861D6
:1006C0000A48006820F0404008490860FFF7B8FE7B
:1006D000FFF7EEFE07E0FFF7D1FE05490880084668
:1006E0000088FFF7F9FEF6E700100240000801401D
:1006F0000000002000B50948C06840F400400749E8
:10070000C8600120FFF7C8FF0448406940F400407A
:10071000024948610120FFF7BFFF00BD0010014002
:1007200010B5044603E014F8010BFFF787FF2078AB
:100730000028F8D110BD0000580700080000002074
:1007400004000000280100085C07000804000020E5
:0C075000640600004401000800000000E6
:04000005080000ED02
:00000001FF
