:020000040800F2
:100000007006002089010008910100089301000892
:100010009501000897010008990100080000000000
:100020000000000000000000000000009B0100082C
:100030009D010008000000009F010008A1010008C8
:10004000A3010008A3010008A3010008A301000800
:10005000A3010008A3010008A3010008A3010008F0
:10006000A3010008A3010008A3010008A3010008E0
:10007000A3010008A3010008A3010008A3010008D0
:10008000A3010008A3010008A3010008A3010008C0
:10009000A3010008A3010008A3010008A3010008B0
:1000A000A3010008A3010008A3010008A3010008A0
:1000B000A3010008A301000800000000A30100083C
:1000C000A30100080000000000000000A3010008D8
:1000D00000000000A3010008A301000800000000C8
:1000E000A3010008A3010008A301000800F002F822
:1000F00000F03AF80AA090E8000C82448344AAF188
:100100000107DA4501D100F02FF8AFF2090EBAE885
:100110000F0013F0010F18BFFB1A43F0010318473B
:10012000B8030000D8030000103A24BF78C878C193
:10013000FAD8520724BF30C830C144BF04680C60ED
:10014000704700000023002400250026103A28BF35
:1001500078C1FBD8520728BF30C148BF0B60704739
:100160001FB51FBD10B510BD00F031F81146FFF7E7
:10017000F7FF00F019F900F04FF803B4FFF7F2FFB2
:1001800003BC00F057F800000948804709480047C1
:10019000FEE7FEE7FEE7FEE7FEE7FEE7FEE7FEE737
:1001A000FEE7FEE704480549054A064B7047000094
:1001B0002D030008ED0000087000002070060020EC
:1001C000700200207002002070477047704775462B
:1001D00000F02CF8AE4605006946534620F00700B3
:1001E000854618B020B5FFF7DDFFBDE820404FF091
:1001F00000064FF000074FF000084FF0000B21F011
:100200000701AC46ACE8C009ACE8C009ACE8C009DD
:10021000ACE8C0098D46704710B50446AFF30080C6
:100220002046BDE81040FFF7A8BF00000048704717
:100230000C00002001491820ABBEFEE7260002009A
:10024000704710B500F002F810BD00000CB500209A
:10025000019000903348006840F4803031490860D4
:1002600000BF3048006800F4003000900198401C46
:100270000190009818B90198B0F5A06FF1D1294804
:10028000006800F4003010B10120009001E000206F
:1002900000900098012843D12348006840F01000E6
:1002A000214908600846006820F0070008600846F9
:1002B000006840F0020008601A4840681949486028
:1002C0000846406848600846406840F480604860DE
:1002D0000846406820F47C1048600846406840F4B6
:1002E000E81048600846006840F08070086000BF71
:1002F0000C48006800F000700028F9D009484068F8
:1003000020F00300074948600846406840F00200BA
:10031000486000BF0348406800F00C000828F9D18D
:100320000CBD0000001002400020024010B5134830
:10033000006840F001001149086008464068104913
:1003400008400E494860084600680E4908400B49BD
:1003500008600846006820F480200860084640686D
:1003600020F4FE0048604FF41F008860FFF769FF2B
:100370004FF000600449086010BD0000001002400A
:100380000000FFF8FFFFF6FE08ED00E005E049F68B
:10039000404100E0491E0029FCDC011EA0F10102E1
:1003A000D0B2F4D1704700000023002500260027BA
:1003B00098460420454988614FF02230444908603E
:1003C0000014091D08607FE05B1C0A2093FBF0F11C
:1003D00000FB1130C5B24FF47A7093FBF0F100FBD3
:1003E0001130642190FBF1F201FB12000A2190FB15
:1003F000F1F0C6B24FF47A7093FBF0F100FB1130CC
:10040000642190FBF1F0C7B24FF47A7093FBF0F0E7
:1004100000F0FF08002455E04FF460602C490C31D7
:10042000086088152A491431086029480C30006892
:10043000284911F80810084325490C3108600120AB
:10044000FFF7A4FF4FF4506021490C3108604815B4
:100450001F49143108601E480C3000681D49C95DF1
:1004600008431B490C3108600120FFF78FFF4FF450
:10047000306017490C3108600815154914310860BF
:1004800013480C3000681349895D084310490C314A
:1004900008600120FFF77AFF4FF4E0600C490C314F
:1004A0000860C8140A491431086009480C30006813
:1004B0000849495D084306490C3108600120FFF7EF
:1004C00065FF641C0A2CA7DB7EE7000000100240D9
:1004D0000008014000000020F8040008000000208F
:1004E0000C00000028010008040500080C00002092
:1004F00064060000440100083F065B4F666D7D07FF
:040500007F6F000009
:04000005080000ED02
:00000001FF
