:020000040800F2
:20000000600600206D0100087501000877010008790100087B0100087D010008000000005A
:200020000000000000000000000000007F0100088101000800000000830100088501000894
:2000400087010008870100088701000887010008870100088701000829020008690200089A
:20006000A902000887010008E902000887010008870100088701000887010008870100087A
:200080008701000887010008870100088701000887010008870100088701000887010008E0
:2000A0008701000887010008870100088701000887010008870100088701000887010008C0
:2000C0008701000887010008870100088701000887010008870100088701000887010008A0
:2000E00087010008870100088701000800F002F800F02CF80AA090E8000C82448344AAF1FC
:200100000107DA4501D100F021F8AFF2090EBAE80F0013F0010F18BFFB1A43F001031847DF
:2001200064040000740400000023002400250026103A28BF78C1FBD8520728BF30C148BFD8
:200140000B6070471FB51FBD10B510BD00F031F81146FFF7F7FF00F0BFF900F04FF803B449
:20016000FFF7F2FF03BC00F057F800000948804709480047FEE7FEE7FEE7FEE7FEE7FEE78C
:20018000FEE7FEE7FEE7FEE704480549054A064B7047000011040008ED0000086000002048
:2001A000600600206002002060020020704770477047754600F02CF8AE4605006946534680
:2001C00020F00700854618B020B5FFF7DDFFBDE820404FF000064FF000074FF000084FF0B8
:2001E000000B21F00701AC46ACE8C009ACE8C009ACE8C009ACE8C0098D46704710B50446DC
:20020000AFF300802046BDE81040FFF7A8BF0000004870470000002001491820ABBEFEE715
:20022000260002007047000000B50D48006800F00100A0B112E001200A490860142000F039
:200240003DF90120074908310860142000F036F90348006840F0010001490860EBE700BDDE
:20026000140401400C08014000B50D48006800F00200A0B112E002200A490860142000F028
:200280001DF90220074908310860142000F016F90348006840F0020001490860EBE700BDDC
:2002A000140401400C08014000B50D48006800F00400A0B112E004200A490860142000F0E4
:2002C000FDF80420074908310860142000F0F6F80348006840F0040001490860EBE700BDDA
:2002E000140401400C08014000B50D48006800F01000A0B112E008200A490860142000F094
:20030000DDF80820074908310860142000F0D6F80348006840F0100001490860EBE700BDC9
:20032000140401400C08014010B500F001F810BD0CB50020019000903348006840F48030CB
:200340003149086000BF3048006800F4003000900198401C0190009818B90198B0F5A06F2C
:20036000F1D12948006800F4003010B10120009001E0002000900098012843D12348006813
:2003800040F01000214908600846006820F0070008600846006840F0020008601A484068BC
:2003A000194948600846406848600846406840F4806048600846406820F47C104860084657
:2003C000406840F4E81048600846006840F08070086000BF0C48006800F000700028F9D097
:2003E0000948406820F00300074948600846406840F00200486000BF0348406800F00C007B
:200400000828F9D10CBD0000001002400020024010B51348006840F001001149086008469C
:200420004068104908400E494860084600680E4908400B4908600846006820F48020086091
:200440000846406820F4FE0048604FF41F008860FFF76AFF4FF000600449086010BD000022
:20046000001002400000FFF8FFFFF6FE08ED00E000280DDB00BF00BF00F01F0201219140DA
:200480004209920002F1E022C2F8001100BF00BF7047000010B5002804DB0A07130E054A3D
:2004A000135406E00A07140E034A00F00F031B1FD45410BD00E400E018ED00E006E000218E
:2004C00000E0491C4FF6E8529142FADD011EA0F10102D0B2F3D170472548806940F00C006C
:2004E000234988614FF022302249086080112249086072B640F21110204988603720204953
:2005000008601F49083108600620FFF7B1FF0720FFF7AEFF0820FFF7ABFF0A20FFF7A8FF45
:200520001720FFF7A5FF00210620FFF7B3FF01210720FFF7AFFF02210820FFF7ABFF0321FF
:200540000A20FFF7A7FF04211720FFF7A3FF62B60DE0802007490C3108601420FFF7AEFF70
:2005600080200449143108601420FFF7A7FFF0E70010024000080140000C01400000014011
:140580000004014094050008000000206006000028010008CA
:00000001FF
